{
  "contractName": "MedicalHistory",
  "abi": [
    {
      "inputs": [
        {
          "internalType": "string",
          "name": "_patientName",
          "type": "string"
        }
      ],
      "stateMutability": "nonpayable",
      "type": "constructor"
    },
    {
      "inputs": [],
      "name": "medicalHistory",
      "outputs": [
        {
          "internalType": "string",
          "name": "",
          "type": "string"
        }
      ],
      "stateMutability": "view",
      "type": "function"
    },
    {
      "inputs": [],
      "name": "owner",
      "outputs": [
        {
          "internalType": "address",
          "name": "",
          "type": "address"
        }
      ],
      "stateMutability": "view",
      "type": "function"
    },
    {
      "inputs": [],
      "name": "patientName",
      "outputs": [
        {
          "internalType": "string",
          "name": "",
          "type": "string"
        }
      ],
      "stateMutability": "view",
      "type": "function"
    },
    {
      "inputs": [
        {
          "internalType": "string",
          "name": "_newHistory",
          "type": "string"
        }
      ],
      "name": "updateMedicalHistory",
      "outputs": [],
      "stateMutability": "nonpayable",
      "type": "function"
    }
  ],
  "bytecode": "0x608060405234801562000010575f80fd5b5060405162000e4638038062000e46833981810160405281019062000036919062000213565b335f806101000a81548173ffffffffffffffffffffffffffffffffffffffff021916908373ffffffffffffffffffffffffffffffffffffffff160217905550806001908162000086919062000499565b50506200057d565b5f604051905090565b5f80fd5b5f80fd5b5f80fd5b5f80fd5b5f601f19601f8301169050919050565b7f4e487b71000000000000000000000000000000000000000000000000000000005f52604160045260245ffd5b620000ef82620000a7565b810181811067ffffffffffffffff82111715620001115762000110620000b7565b5b80604052505050565b5f620001256200008e565b9050620001338282620000e4565b919050565b5f67ffffffffffffffff821115620001555762000154620000b7565b5b6200016082620000a7565b9050602081019050919050565b5f5b838110156200018c5780820151818401526020810190506200016f565b5f8484015250505050565b5f620001ad620001a78462000138565b6200011a565b905082815260208101848484011115620001cc57620001cb620000a3565b5b620001d98482856200016d565b509392505050565b5f82601f830112620001f857620001f76200009f565b5b81516200020a84826020860162000197565b91505092915050565b5f602082840312156200022b576200022a62000097565b5b5f82015167ffffffffffffffff8111156200024b576200024a6200009b565b5b6200025984828501620001e1565b91505092915050565b5f81519050919050565b7f4e487b71000000000000000000000000000000000000000000000000000000005f52602260045260245ffd5b5f6002820490506001821680620002b157607f821691505b602082108103620002c757620002c66200026c565b5b50919050565b5f819050815f5260205f209050919050565b5f6020601f8301049050919050565b5f82821b905092915050565b5f600883026200032b7fffffffffffffffffffffffffffffffffffffffffffffffffffffffffffffffff82620002ee565b620003378683620002ee565b95508019841693508086168417925050509392505050565b5f819050919050565b5f819050919050565b5f620003816200037b62000375846200034f565b62000358565b6200034f565b9050919050565b5f819050919050565b6200039c8362000361565b620003b4620003ab8262000388565b848454620002fa565b825550505050565b5f90565b620003ca620003bc565b620003d781848462000391565b505050565b5b81811015620003fe57620003f25f82620003c0565b600181019050620003dd565b5050565b601f8211156200044d576200041781620002cd565b6200042284620002df565b8101602085101562000432578190505b6200044a6200044185620002df565b830182620003dc565b50505b505050565b5f82821c905092915050565b5f6200046f5f198460080262000452565b1980831691505092915050565b5f6200048983836200045e565b9150826002028217905092915050565b620004a48262000262565b67ffffffffffffffff811115620004c057620004bf620000b7565b5b620004cc825462000299565b620004d982828562000402565b5f60209050601f8311600181146200050f575f8415620004fa578287015190505b6200050685826200047c565b86555062000575565b601f1984166200051f86620002cd565b5f5b82811015620005485784890151825560018201915060208501945060208101905062000521565b8683101562000568578489015162000564601f8916826200045e565b8355505b6001600288020188555050505b505050505050565b6108bb806200058b5f395ff3fe608060405234801561000f575f80fd5b506004361061004a575f3560e01c806335fd31441461004e5780638da5cb5b1461006a57806398f6f0e114610088578063e0a4c8d6146100a6575b5f80fd5b610068600480360381019061006391906103ec565b6100c4565b005b610072610164565b60405161007f9190610472565b60405180910390f35b610090610187565b60405161009d9190610505565b60405180910390f35b6100ae610213565b6040516100bb9190610505565b60405180910390f35b5f8054906101000a900473ffffffffffffffffffffffffffffffffffffffff1673ffffffffffffffffffffffffffffffffffffffff163373ffffffffffffffffffffffffffffffffffffffff1614610151576040517f08c379a000000000000000000000000000000000000000000000000000000000815260040161014890610595565b60405180910390fd5b806002908161016091906107b6565b5050565b5f8054906101000a900473ffffffffffffffffffffffffffffffffffffffff1681565b60018054610194906105e0565b80601f01602080910402602001604051908101604052809291908181526020018280546101c0906105e0565b801561020b5780601f106101e25761010080835404028352916020019161020b565b820191905f5260205f20905b8154815290600101906020018083116101ee57829003601f168201915b505050505081565b60028054610220906105e0565b80601f016020809104026020016040519081016040528092919081815260200182805461024c906105e0565b80156102975780601f1061026e57610100808354040283529160200191610297565b820191905f5260205f20905b81548152906001019060200180831161027a57829003601f168201915b505050505081565b5f604051905090565b5f80fd5b5f80fd5b5f80fd5b5f80fd5b5f601f19601f8301169050919050565b7f4e487b71000000000000000000000000000000000000000000000000000000005f52604160045260245ffd5b6102fe826102b8565b810181811067ffffffffffffffff8211171561031d5761031c6102c8565b5b80604052505050565b5f61032f61029f565b905061033b82826102f5565b919050565b5f67ffffffffffffffff82111561035a576103596102c8565b5b610363826102b8565b9050602081019050919050565b828183375f83830152505050565b5f61039061038b84610340565b610326565b9050828152602081018484840111156103ac576103ab6102b4565b5b6103b7848285610370565b509392505050565b5f82601f8301126103d3576103d26102b0565b5b81356103e384826020860161037e565b91505092915050565b5f60208284031215610401576104006102a8565b5b5f82013567ffffffffffffffff81111561041e5761041d6102ac565b5b61042a848285016103bf565b91505092915050565b5f73ffffffffffffffffffffffffffffffffffffffff82169050919050565b5f61045c82610433565b9050919050565b61046c81610452565b82525050565b5f6020820190506104855f830184610463565b92915050565b5f81519050919050565b5f82825260208201905092915050565b5f5b838110156104c25780820151818401526020810190506104a7565b5f8484015250505050565b5f6104d78261048b565b6104e18185610495565b93506104f18185602086016104a5565b6104fa816102b8565b840191505092915050565b5f6020820190508181035f83015261051d81846104cd565b905092915050565b7f4f6e6c7920746865206f776e65722063616e2075706461746520746865206d655f8201527f646963616c20686973746f72792e000000000000000000000000000000000000602082015250565b5f61057f602e83610495565b915061058a82610525565b604082019050919050565b5f6020820190508181035f8301526105ac81610573565b9050919050565b7f4e487b71000000000000000000000000000000000000000000000000000000005f52602260045260245ffd5b5f60028204905060018216806105f757607f821691505b60208210810361060a576106096105b3565b5b50919050565b5f819050815f5260205f209050919050565b5f6020601f8301049050919050565b5f82821b905092915050565b5f6008830261066c7fffffffffffffffffffffffffffffffffffffffffffffffffffffffffffffffff82610631565b6106768683610631565b95508019841693508086168417925050509392505050565b5f819050919050565b5f819050919050565b5f6106ba6106b56106b08461068e565b610697565b61068e565b9050919050565b5f819050919050565b6106d3836106a0565b6106e76106df826106c1565b84845461063d565b825550505050565b5f90565b6106fb6106ef565b6107068184846106ca565b505050565b5b818110156107295761071e5f826106f3565b60018101905061070c565b5050565b601f82111561076e5761073f81610610565b61074884610622565b81016020851015610757578190505b61076b61076385610622565b83018261070b565b50505b505050565b5f82821c905092915050565b5f61078e5f1984600802610773565b1980831691505092915050565b5f6107a6838361077f565b9150826002028217905092915050565b6107bf8261048b565b67ffffffffffffffff8111156107d8576107d76102c8565b5b6107e282546105e0565b6107ed82828561072d565b5f60209050601f83116001811461081e575f841561080c578287015190505b610816858261079b565b86555061087d565b601f19841661082c86610610565b5f5b828110156108535784890151825560018201915060208501945060208101905061082e565b86831015610870578489015161086c601f89168261077f565b8355505b6001600288020188555050505b50505050505056fea26469706673582212204bcb5d2b38b52f216f2dc1b509ec889be0e5f67b9700244f622dd34e256bc0c664736f6c63430008150033",
  "immutableReferences": {},
  "source": "// SPDX-License-Identifier: MIT\r\npragma solidity ^0.8.0;\r\n\r\ncontract MedicalHistory {\r\n    address public owner;\r\n    string public patientName;\r\n    string public medicalHistory;\r\n\r\n    constructor(string memory _patientName) {\r\n        owner = msg.sender;\r\n        patientName = _patientName;\r\n    }\r\n\r\n    modifier onlyOwner() {\r\n        require(msg.sender == owner, \"Only the owner can update the medical history.\");\r\n        _;\r\n    }\r\n\r\n    function updateMedicalHistory(string memory _newHistory) public onlyOwner {\r\n        medicalHistory = _newHistory;\r\n    }\r\n}\r\n",
  "sourcePath": "C:\\Users\\yuyu\\OneDrive\\Desktop\\MedicalHistoryDApp\\contracts\\MedicalHistory.sol",
  "compiler": {
    "name": "solc",
    "version": "0.8.21+commit.d9974bed.Emscripten.clang"
  },
  "schemaVersion": "3.4.16",
  "updatedAt": "2023-09-20T06:40:28.441Z",
  "devdoc": {
    "kind": "dev",
    "methods": {},
    "version": 1
  },
  "userdoc": {
    "kind": "user",
    "methods": {},
    "version": 1
  }
}